{
  "contractName": "Voting",
  "abi": [
    {
      "inputs": [
        {
          "internalType": "string",
          "name": "_candidate1",
          "type": "string"
        },
        {
          "internalType": "string",
          "name": "_candidate2",
          "type": "string"
        }
      ],
      "stateMutability": "nonpayable",
      "type": "constructor"
    },
    {
      "anonymous": false,
      "inputs": [
        {
          "indexed": false,
          "internalType": "address",
          "name": "voter",
          "type": "address"
        },
        {
          "indexed": false,
          "internalType": "string",
          "name": "candidate",
          "type": "string"
        }
      ],
      "name": "VoteCast",
      "type": "event"
    },
    {
      "inputs": [],
      "name": "candidate1",
      "outputs": [
        {
          "internalType": "string",
          "name": "",
          "type": "string"
        }
      ],
      "stateMutability": "view",
      "type": "function"
    },
    {
      "inputs": [],
      "name": "candidate2",
      "outputs": [
        {
          "internalType": "string",
          "name": "",
          "type": "string"
        }
      ],
      "stateMutability": "view",
      "type": "function"
    },
    {
      "inputs": [
        {
          "internalType": "address",
          "name": "",
          "type": "address"
        }
      ],
      "name": "hasVoted",
      "outputs": [
        {
          "internalType": "bool",
          "name": "",
          "type": "bool"
        }
      ],
      "stateMutability": "view",
      "type": "function"
    },
    {
      "inputs": [],
      "name": "owner",
      "outputs": [
        {
          "internalType": "address",
          "name": "",
          "type": "address"
        }
      ],
      "stateMutability": "view",
      "type": "function"
    },
    {
      "inputs": [
        {
          "internalType": "string",
          "name": "",
          "type": "string"
        }
      ],
      "name": "votes",
      "outputs": [
        {
          "internalType": "uint256",
          "name": "",
          "type": "uint256"
        }
      ],
      "stateMutability": "view",
      "type": "function"
    },
    {
      "inputs": [
        {
          "internalType": "string",
          "name": "candidate",
          "type": "string"
        }
      ],
      "name": "vote",
      "outputs": [],
      "stateMutability": "nonpayable",
      "type": "function"
    },
    {
      "inputs": [
        {
          "internalType": "string",
          "name": "candidate",
          "type": "string"
        }
      ],
      "name": "getVotes",
      "outputs": [
        {
          "internalType": "uint256",
          "name": "",
          "type": "uint256"
        }
      ],
      "stateMutability": "view",
      "type": "function"
    }
  ],
  "bytecode": "0x60806040523480156200001157600080fd5b5060405162000f1b38038062000f1b8339818101604052810190620000379190620001d3565b336000806101000a81548173ffffffffffffffffffffffffffffffffffffffff021916908373ffffffffffffffffffffffffffffffffffffffff16021790555081600390805190602001906200008f929190620000b1565b508060049080519060200190620000a8929190620000b1565b50505062000377565b828054620000bf90620002e3565b90600052602060002090601f016020900481019282620000e357600085556200012f565b82601f10620000fe57805160ff19168380011785556200012f565b828001600101855582156200012f579182015b828111156200012e57825182559160200191906001019062000111565b5b5090506200013e919062000142565b5090565b5b808211156200015d57600081600090555060010162000143565b5090565b60006200017862000172846200027a565b62000246565b9050828152602081018484840111156200019157600080fd5b6200019e848285620002ad565b509392505050565b600082601f830112620001b857600080fd5b8151620001ca84826020860162000161565b91505092915050565b60008060408385031215620001e757600080fd5b600083015167ffffffffffffffff8111156200020257600080fd5b6200021085828601620001a6565b925050602083015167ffffffffffffffff8111156200022e57600080fd5b6200023c85828601620001a6565b9150509250929050565b6000604051905081810181811067ffffffffffffffff8211171562000270576200026f62000348565b5b8060405250919050565b600067ffffffffffffffff82111562000298576200029762000348565b5b601f19601f8301169050602081019050919050565b60005b83811015620002cd578082015181840152602081019050620002b0565b83811115620002dd576000848401525b50505050565b60006002820490506001821680620002fc57607f821691505b6020821081141562000313576200031262000319565b5b50919050565b7f4e487b7100000000000000000000000000000000000000000000000000000000600052602260045260246000fd5b7f4e487b7100000000000000000000000000000000000000000000000000000000600052604160045260246000fd5b610b9480620003876000396000f3fe608060405234801561001057600080fd5b506004361061007d5760003560e01c8063805265e51161005b578063805265e5146100ee5780638da5cb5b1461011e578063b99ef1fa1461013c578063fc36e15b1461016c5761007d565b806301243fce1461008257806309eef43e146100a05780635b57014c146100d0575b600080fd5b61008a610188565b604051610097919061088a565b60405180910390f35b6100ba60048036038101906100b591906105f6565b610216565b6040516100c7919061086f565b60405180910390f35b6100d8610236565b6040516100e5919061088a565b60405180910390f35b6101086004803603810190610103919061061f565b6102c4565b60405161011591906108ec565b60405180910390f35b6101266102ec565b6040516101339190610824565b60405180910390f35b6101566004803603810190610151919061061f565b610310565b60405161016391906108ec565b60405180910390f35b6101866004803603810190610181919061061f565b61033e565b005b6003805461019590610a2e565b80601f01602080910402602001604051908101604052809291908181526020018280546101c190610a2e565b801561020e5780601f106101e35761010080835404028352916020019161020e565b820191906000526020600020905b8154815290600101906020018083116101f157829003601f168201915b505050505081565b60026020528060005260406000206000915054906101000a900460ff1681565b6004805461024390610a2e565b80601f016020809104026020016040519081016040528092919081815260200182805461026f90610a2e565b80156102bc5780601f10610291576101008083540402835291602001916102bc565b820191906000526020600020905b81548152906001019060200180831161029f57829003601f168201915b505050505081565b60006001826040516102d691906107f6565b9081526020016040518091039020549050919050565b60008054906101000a900473ffffffffffffffffffffffffffffffffffffffff1681565b6001818051602081018201805184825260208301602085012081835280955050505050506000915090505481565b600260003373ffffffffffffffffffffffffffffffffffffffff1673ffffffffffffffffffffffffffffffffffffffff16815260200190815260200160002060009054906101000a900460ff16156103cb576040517f08c379a00000000000000000000000000000000000000000000000000000000081526004016103c2906108cc565b60405180910390fd5b60036040516020016103dd919061080d565b604051602081830303815290604052805190602001208160405160200161040491906107f6565b60405160208183030381529060405280519060200120148061047257506004604051602001610433919061080d565b604051602081830303815290604052805190602001208160405160200161045a91906107f6565b60405160208183030381529060405280519060200120145b6104b1576040517f08c379a00000000000000000000000000000000000000000000000000000000081526004016104a8906108ac565b60405180910390fd5b6001816040516104c191906107f6565b908152602001604051809103902060008154809291906104e090610a60565b91905055506001600260003373ffffffffffffffffffffffffffffffffffffffff1673ffffffffffffffffffffffffffffffffffffffff16815260200190815260200160002060006101000a81548160ff0219169083151502179055507f866dc605853954ffa419910eb05d67f430efec2e7db7ce135bf55565667a4ab4338260405161056e92919061083f565b60405180910390a150565b600061058c61058784610938565b610907565b9050828152602081018484840111156105a457600080fd5b6105af8482856109ec565b509392505050565b6000813590506105c681610b47565b92915050565b600082601f8301126105dd57600080fd5b81356105ed848260208601610579565b91505092915050565b60006020828403121561060857600080fd5b6000610616848285016105b7565b91505092915050565b60006020828403121561063157600080fd5b600082013567ffffffffffffffff81111561064b57600080fd5b610657848285016105cc565b91505092915050565b610669816109a4565b82525050565b610678816109b6565b82525050565b60006106898261097d565b6106938185610988565b93506106a38185602086016109fb565b6106ac81610b36565b840191505092915050565b60006106c28261097d565b6106cc8185610999565b93506106dc8185602086016109fb565b80840191505092915050565b600081546106f581610a2e565b6106ff8186610999565b9450600182166000811461071a576001811461072b5761075e565b60ff1983168652818601935061075e565b61073485610968565b60005b8381101561075657815481890152600182019150602081019050610737565b838801955050505b50505092915050565b6000610774601183610988565b91507f496e76616c69642063616e6469646174650000000000000000000000000000006000830152602082019050919050565b60006107b4601683610988565b91507f596f75206861766520616c726561647920766f746564000000000000000000006000830152602082019050919050565b6107f0816109e2565b82525050565b600061080282846106b7565b915081905092915050565b600061081982846106e8565b915081905092915050565b60006020820190506108396000830184610660565b92915050565b60006040820190506108546000830185610660565b8181036020830152610866818461067e565b90509392505050565b6000602082019050610884600083018461066f565b92915050565b600060208201905081810360008301526108a4818461067e565b905092915050565b600060208201905081810360008301526108c581610767565b9050919050565b600060208201905081810360008301526108e5816107a7565b9050919050565b600060208201905061090160008301846107e7565b92915050565b6000604051905081810181811067ffffffffffffffff8211171561092e5761092d610b07565b5b8060405250919050565b600067ffffffffffffffff82111561095357610952610b07565b5b601f19601f8301169050602081019050919050565b60008190508160005260206000209050919050565b600081519050919050565b600082825260208201905092915050565b600081905092915050565b60006109af826109c2565b9050919050565b60008115159050919050565b600073ffffffffffffffffffffffffffffffffffffffff82169050919050565b6000819050919050565b82818337600083830152505050565b60005b83811015610a195780820151818401526020810190506109fe565b83811115610a28576000848401525b50505050565b60006002820490506001821680610a4657607f821691505b60208210811415610a5a57610a59610ad8565b5b50919050565b6000610a6b826109e2565b91507fffffffffffffffffffffffffffffffffffffffffffffffffffffffffffffffff821415610a9e57610a9d610aa9565b5b600182019050919050565b7f4e487b7100000000000000000000000000000000000000000000000000000000600052601160045260246000fd5b7f4e487b7100000000000000000000000000000000000000000000000000000000600052602260045260246000fd5b7f4e487b7100000000000000000000000000000000000000000000000000000000600052604160045260246000fd5b6000601f19601f8301169050919050565b610b50816109a4565b8114610b5b57600080fd5b5056fea26469706673582212202d8b34d465bf21566a7a5fd1b5273b9892a8d0269eb1a9651a85f0a12d010dd064736f6c63430008000033",
  "immutableReferences": {},
  "source": "// SPDX-License-Identifier: MIT\r\npragma solidity ^0.8.0;\r\n\r\ncontract Voting {\r\n  address public owner;\r\n  mapping(string => uint256) public votes;\r\n  mapping(address => bool) public hasVoted;\r\n\r\n  string public candidate1;\r\n  string public candidate2;\r\n\r\n  event VoteCast(address voter, string candidate);\r\n\r\n  constructor(string memory _candidate1, string memory _candidate2) {\r\n        owner = msg.sender;\r\n        candidate1 = _candidate1;\r\n        candidate2 = _candidate2;\r\n  }\r\n\r\n  function vote(string memory candidate) public {\r\n        require(!hasVoted[msg.sender], \"You have already voted\");\r\n        require(keccak256(abi.encodePacked(candidate)) == keccak256(abi.encodePacked(candidate1)) ||\r\n                keccak256(abi.encodePacked(candidate)) == keccak256(abi.encodePacked(candidate2)), \"Invalid candidate\");\r\n\r\n        votes[candidate]++;\r\n        hasVoted[msg.sender] = true;\r\n\r\n        emit VoteCast(msg.sender, candidate);\r\n  }\r\n\r\n  function getVotes(string memory candidate) public view returns (uint256) {\r\n        return votes[candidate];\r\n  }\r\n\r\n}\r\n",
  "sourcePath": "C:\\Users\\MARCUSES\\dvote\\src\\contracts\\Voting.sol",
  "compiler": {
    "name": "solc",
    "version": "0.8.0+commit.c7dfd78e.Emscripten.clang"
  },
  "schemaVersion": "3.4.16",
  "updatedAt": "2024-06-23T22:43:55.153Z",
  "devdoc": {
    "kind": "dev",
    "methods": {},
    "version": 1
  },
  "userdoc": {
    "kind": "user",
    "methods": {},
    "version": 1
  }
}